:100000000C9434000C9445010C9451000C94510054
:100010000C9451000C9451000C9451000C9451001C
:100020000C9451000C9451000C9451000C9451000C
:100030000C9451000C9451000C9451000C945100FC
:100040000C9451000C9451000C9451000C945100EC
:100050000C9451000C9451000C9451000C945100DC
:100060000C9451000C94510011241FBECFEFD8E026
:10007000DEBFCDBF11E0A0E0B1E0E2EBFFE002C0E7
:1000800005900D92AE36B107D9F722E0AEE6B1E0A9
:1000900001C01D92A937B207E1F70E9476000C94C7
:1000A000D7070C94000087B1806387B988B180635B
:1000B00088B91092B90088E48093B80085E48093F1
:1000C000BC0008951092C50087E68093C40088E1C3
:1000D0008093C10086E08093C2000895E0ECF0E0D8
:1000E000908195FFFDCF8093C60008950E94620025
:1000F00060E070E08EE690E00E94680388E591E0A1
:100100009F938F930E94B303539A52980E94530077
:100110000E941703209A219A289A299A0E94AE00D9
:1001200081E080936E010F900F905B9A8FE891E0D1
:100130000197F1F700C000005B988FE891E001970C
:10014000F1F700C0000080912802882371F310921B
:100150007F010E94D60210922802E7CFE9E6F0E084
:10016000808181608083E89A7894E1E8F0E0808182
:100170008360808310922C0210922B0210927001E7
:1001800010926F0110922E0210922D0210922802EE
:1001900010927F0110927101109280011092290239
:1001A000109272011092840110922A02109285011D
:1001B00010926E0110927E0110927D0110928301C7
:1001C0001092820110928701109286010895CF92B9
:1001D000DF92EF92FF920F931F93CF93DF932091C3
:1001E0008501C12CD12CE12CF12C01E010E031C0B3
:1001F000A801022E02C0440F551F0A94E2F7FA012B
:10020000EC23FD234A235B23E417F50709F4D39479
:100210002F5F3F4F2031310559F7209185014D2D3A
:1002200050E022952F70E0E12E9F90011124225F73
:100230003F4F42175307ECF4C394209185014C2D96
:1002400050E022952F7030E02F5F3F4F4217530749
:1002500094F42C2D30E0220F331FFC01E20FF31F2A
:10026000C081D181FB01E20FF31FA081B181970111
:10027000BFCF81E001C080E0DF91CF911F910F914E
:10028000FF90EF90DF90CF9008951F920F920FB6DE
:100290000F9211242F933F934F935F936F937F930C
:1002A0008F939F93AF93BF93EF93FF9380918400BD
:1002B0009091850090937E0180937D0120916F0144
:1002C00030917001232B09F4AFC04A9959C0803A8C
:1002D0002FE0920708F054C01092290220912902C1
:1002E00060918601709187010E944003462F572F2D
:1002F000822F90E084179507E8F5A1E0B0E0E09147
:100300008001F0E02091290280917101EE0FFF1F22
:10031000E15DFD4F90E0820F911D9D0102C0220F13
:10032000331F8A95E2F7C90120813181820F931F23
:100330009183808380917F018F5F80937F012091E3
:1003400029028091710190E0820F911D0F973CF07E
:10035000809180018F5F8093800110927101809164
:1003600029028F5F809329028091290290E08417EF
:10037000950728F280917101680F609371010AC09E
:10038000809171018F5F8093710180917F018F5FF8
:1003900080937F01809171018F3038F080918001CE
:1003A0008F5F809380011092710190917F01809105
:1003B0008501981798F080916F0190917001892BB9
:1003C00069F080916E01813049F010927F011092A6
:1003D000700110926F0181E08093280280916E017C
:1003E000813011F580917D0190917E01813A9F408D
:1003F000D8F080917F0181508093850181E090E069
:1004000090932E0280932D0210922C0210922B02B8
:100410001092700110926F0110927F011092710181
:100420001092800110926E0180917F01833008F05C
:100430005EC080912B0290912C02892B09F457C049
:10044000E0917F01F0E0EE0FFF1FE958FE4F809131
:100450007D0190917E019183808380917F018F5FE8
:1004600080937F0180917F01833009F040C010921A
:100470002C0210922B0281E090E090937001809307
:100480006F011092800110927F01209177013091CD
:1004900078018091790190917A01820F931F2091C8
:1004A0007B0130917C01820F931F63E070E00E941A
:1004B00054036F5071097093870160938601109205
:1004C0007F0180917F01803190F4E0917F01F0E025
:1004D000EE0FFF1FE15DFD4F1182108280917F01C1
:1004E0008F5F80937F0180917F01803170F38091D5
:1004F0007D0190917E019C01295C31092F3E3A409B
:10050000A0F44A9B12C010927F01E3E7F1E08083E0
:100510009183282F392F332314F42F5F3F4F3595C4
:10052000279530938301209382012091820130919D
:100530008301A9014C5E5F4F4817590788F0245189
:1005400031098217930760F04A990AC090937601A7
:100550008093750121E030E030932C0220932B0230
:1005600081389C4070F010922C0210922B02109255
:10057000700110926F0110927F0110927101109220
:1005800080011092850010928400FF91EF91BF913D
:10059000AF919F918F917F916F915F914F913F911B
:1005A0002F910F900FBE0F901F901895EF92FF9212
:1005B0000F931F93CF93DF93C0E0D0E000E611E0EC
:1005C0006C2F7D2F660F771FCB01880F991F880F27
:1005D000991F880F991F680F791F6A5F7E4F8FE2FE
:1005E00092E00E94E7008823B9F0DF93CF931F9336
:1005F0000F930E94B303FE01E25BFE4F80810E94D5
:100600001A030F900F900F900F90C23018F0289897
:10061000299802C0289A299A2196C430D10581F6DA
:10062000DF91CF911F910F91FF90EF90089587E098
:1006300087B908954198EFE3FCE93197F1F700C0DD
:100640000000419A98E0882314F4429A01C042982D
:10065000EFE9FFE03197F1F700C000004098EFE9C3
:10066000FFE03197F1F700C00000409A880F9150E9
:1006700051F78FE99FE00197F1F700C0000008955E
:10068000AA1BBB1B51E107C0AA1FBB1FA617B707B8
:1006900010F0A61BB70B881F991F5A95A9F78095D4
:1006A0009095BC01CD01089597FB072E16F4009498
:1006B00007D077FD09D00E94400307FC05D03EF427
:1006C000909581959F4F0895709561957F4F0895FE
:1006D0000F931F93CF93DF93EC018B01009731F4BD
:1006E0006115710519F4E0E0F0E037C06EE070E0EC
:1006F00081E090E00E94A305FC010097A1F380E84F
:1007000083830115110571F01387028781E88383C4
:1007100080916F0290917002892B21F4F093700206
:10072000E0936F022097C9F0D187C08783818260F0
:1007300083838091710290917202892B71F4F093FE
:100740007202E09371028091730290917402892B7E
:1007500021F4F0937402E0937302CF01DF91CF9103
:100760001F910F910895A0E0B0E0E9EBF3E00C9445
:10077000B007FE01359661917191AF0180917102D0
:10078000909172020E94C703E2E00C94CC07ACE0A7
:10079000B0E0EDECF3E00C94A0077C016B018A0162
:1007A000FC0117821682838181FFC6C1882483944D
:1007B000912C8C0E9D1EF7019381F60193FD85917E
:1007C00093FF81916F01882309F4B2C1853239F416
:1007D00093FD859193FF81916F01853229F4B701D3
:1007E00090E00E941607E7CF512C312C20E02032F8
:1007F000A8F48B3261F028F4803251F0833271F426
:100800000BC08D3239F0803349F4216028C022605A
:10081000246025C0286023C0206121C027FD27C097
:10082000382F30533A3078F426FF06C0FAE05F9E46
:10083000300D1124532E13C08AE0389E300D112440
:10084000332E20620CC08E3221F426FD71C120644B
:1008500006C08C3611F4206802C0883641F4F601D7
:1008600093FD859193FF81916F018111C0CF982FE6
:100870009554933018F09052933028F40C5F1F4F2A
:10088000FFE3F9830DC0833631F0833771F0833590
:1008900009F05EC023C0F801808189830E5F1F4F7D
:1008A00044244394512C540115C03801F2E06F0EDA
:1008B000711CF801A080B18026FF03C0652D70E097
:1008C00002C06FEF7FEFC5012C870E940B072C0140
:1008D00083012C856FE7262E222218C03801F2E012
:1008E0006F0E711CF801A080B18026FF03C0652D3A
:1008F00070E002C06FEF7FEFC5012C870E94F90600
:100900002C012C8550E8252E222A830123FC1CC0B3
:1009100006C0B70180E290E00E9416073A94832D4A
:1009200090E048165906A8F30FC0F50127FC859101
:1009300027FE81915F01B70190E00E9416073110F8
:100940003A94F1E04F1A51084114510471F7EDC087
:10095000843611F0893641F5F80127FF07C0608120
:100960007181828193810C5F1F4F08C0608171810A
:10097000882777FD8095982F0E5F1F4F4FE6B42E86
:10098000B22297FF09C090958095709561957F4F31
:100990008F4F9F4FF0E8BF2A2AE030E0A4010E9469
:1009A0004207A82EA81843C0853731F43FEEB32E76
:1009B000B2222AE030E024C099EFB92EB2228F365D
:1009C000B9F020F4883509F0B3C00DC0803721F0AC
:1009D000883709F0ADC002C020E1B22AB4FE0BC0D6
:1009E00084E0B82A08C024FF09C0E6E0BE2A06C099
:1009F00028E030E005C020E130E002C020E132E034
:100A0000F801B7FE07C060817181828193810C5F1C
:100A10001F4F06C06081718180E090E00E5F1F4F24
:100A2000A4010E944207A82EA818FFE7BF22B6FE25
:100A30000BC02B2D2E7FA51450F4B4FE0AC0B2FCBF
:100A400008C02B2D2E7E05C07A2C2B2D03C07A2CAE
:100A500001C0752C24FF0DC0FE01EA0DF11D80813F
:100A6000803311F4297E09C022FF06C07394739469
:100A700004C0822F867809F0739423FD14C020FFF0
:100A80000FC05A2C731460F4530C5718732C08C001
:100A9000B70180E290E02C870E94160773942C85A2
:100AA0007314B0F304C0731410F4371801C0312C60
:100AB00024FF12C0B70180E390E02C870E94160744
:100AC0002C8522FF1EC021FF03C088E590E002C0F4
:100AD00088E790E0B7010CC0822F867891F021FD65
:100AE00002C080E201C08BE227FD8DE2B70190E0F9
:100AF0000E94160706C0B70180E390E00E94160727
:100B00005A94A514C0F3AA94F401EA0DF11DB7019B
:100B1000808190E00E941607A110F5CF06C0B701B2
:100B200080E290E00E9416073A943110F8CF43CE4D
:100B3000F7012681378102C02FEF3FEFC9012C96C4
:100B4000E2E10C94BC070F931F93CF93DF93689F50
:100B50008001699F100D789F100D1124C8010E941B
:100B6000C105C82FD92F209731F0A80160E070E0AF
:100B70008C2F0E940407CE01DF91CF911F910F911E
:100B800008950F931F93CF93DF938230910510F454
:100B900082E090E0E0917702F091780220E030E08E
:100BA000C0E0D0E023C04081518148175907A8F028
:100BB0004817590761F482819381209719F09B832C
:100BC0008A832EC0909378028093770229C02115E2
:100BD000310529F04217530710F0A90102C0BE01E8
:100BE000DF0102811381EF019A01F8013097D9F6F4
:100BF0002115310509F1281B390B2430310590F4FA
:100C000012968D919C9113976115710521F0FB014E
:100C10009383828304C09093780280937702FD01CE
:100C2000329644C0FD01E20FF31F8193919322504D
:100C300031092D933C933AC0209175023091760290
:100C4000232B41F42091020130910301309376026D
:100C50002093750220910001309101012115310589
:100C600041F42DB73EB74091040150910501241B7A
:100C7000350BE0917502F0917602E217F307A0F4CC
:100C80002E1B3F0B2817390778F0AC014E5F5F4FE2
:100C90002417350748F04E0F5F1F5093760240939C
:100CA00075028193919302C0E0E0F0E0CF01DF9103
:100CB000CF911F910F910895EF92FF920F931F9381
:100CC000CF93DF93009709F48FC0DC01129713963E
:100CD0001C921E921297E0907702F0907802E11435
:100CE000F10489F42D913C911197280F391F8091BF
:100CF0007502909176028217930789F5B093760278
:100D0000A093750271C0E70120E030E001C0EA0164
:100D1000CA17DB0738F44A815B819E0141155105F2
:100D2000B1F722C0BC0162507109FB01D383C283B9
:100D300000811181AC01400F511F4C175D0761F418
:100D400048815981400F511F4E5F5F4F518340834F
:100D50004A815B81538342832115310529F4B09385
:100D60007802A093770240C0F901B383A283E9011E
:100D700069917991C60FD71FAC17BD0779F4DC01D3
:100D80005E914E91460F571F4E5F5F4F51834083D8
:100D900012968D919C91139793838283A0E0B0E08B
:100DA00002C0D7017C01F701828193810097C9F7C6
:100DB000C701029620813181820F931F2091750215
:100DC000309176022817390779F4109729F4109298
:100DD00078021092770204C013961C921E9212970A
:100DE000F0927602E0927502CDB7DEB7E6E00C94A1
:100DF000C807FC010590615070400110D8F780953C
:100E000090958E0F9F1F0895DC0101C06D93415096
:100E10005040E0F70895FC016150704001900110CE
:100E2000D8F7809590958E0F9F1F08950F931F936D
:100E3000CF93DF938C01EB018B8181FD03C00FEF1A
:100E40001FEF1AC082FF0DC02E813F818C819D81D2
:100E50002817390764F4E881F9810193F983E8835D
:100E600006C0E885F985802F0995892B41F78E8189
:100E70009F8101969F838E83C801DF91CF911F913F
:100E80000F910895FA01AA27283051F1203181F1FC
:100E9000E8946F936E7F6E5F7F4F8F4F9F4FAF4F82
:100EA000B1E03ED0B4E03CD0670F781F891F9A1F95
:100EB000A11D680F791F8A1F911DA11D6A0F711D49
:100EC000811D911DA11D20D009F468943F912AE055
:100ED000269F11243019305D3193DEF6CF0108953D
:100EE000462F4770405D4193B3E00FD0C9F7F6CF6E
:100EF000462F4F70405D4A3318F0495D31FD405236
:100F0000419302D0A9F7EACFB4E0A69597958795CB
:100F100077956795BA95C9F70097610571050895AA
:100F20009B01AC010A2E0694579547953795279556
:100F3000BA95C9F7620F731F841F951FA01D0895EE
:100F40002F923F924F925F926F927F928F929F92D9
:100F5000AF92BF92CF92DF92EF92FF920F931F93C7
:100F6000CF93DF93CDB7DEB7CA1BDB0B0FB6F89478
:100F7000DEBF0FBECDBF09942A88398848885F84B8
:100F80006E847D848C849B84AA84B984C884DF8029
:100F9000EE80FD800C811B81AA81B981CE0FD11D0D
:100FA0000FB6F894DEBF0FBECDBFED010895F894E3
:020FB000FFCF71
:100FB20000007902200077D77455EA2A5777EEEEBF
:100FC2005055AE3B77773A0077D77455EA2A577770
:100FD200EEEE7055BA3A77773A0077D77455EA2A27
:100FE2005777EEEED055BA2E77773A0077D7745509
:100FF200EA2A5777EEEE7057EA2A77773A0001D756
:10100200221254180C5300100A20494E4954200051
:0E1012000A0A0A20464F554E4420256400006D
:00000001FF
